{
  "_format": "hh-sol-artifact-1",
  "contractName": "MedicineNFT",
  "sourceName": "contracts/TraceMind.sol",
  "abi": [
    {
      "inputs": [
        {
          "internalType": "address",
          "name": "initialOwner",
          "type": "address"
        }
      ],
      "stateMutability": "nonpayable",
      "type": "constructor"
    },
    {
      "inputs": [
        {
          "internalType": "address",
          "name": "sender",
          "type": "address"
        },
        {
          "internalType": "uint256",
          "name": "tokenId",
          "type": "uint256"
        },
        {
          "internalType": "address",
          "name": "owner",
          "type": "address"
        }
      ],
      "name": "ERC721IncorrectOwner",
      "type": "error"
    },
    {
      "inputs": [
        {
          "internalType": "address",
          "name": "operator",
          "type": "address"
        },
        {
          "internalType": "uint256",
          "name": "tokenId",
          "type": "uint256"
        }
      ],
      "name": "ERC721InsufficientApproval",
      "type": "error"
    },
    {
      "inputs": [
        {
          "internalType": "address",
          "name": "approver",
          "type": "address"
        }
      ],
      "name": "ERC721InvalidApprover",
      "type": "error"
    },
    {
      "inputs": [
        {
          "internalType": "address",
          "name": "operator",
          "type": "address"
        }
      ],
      "name": "ERC721InvalidOperator",
      "type": "error"
    },
    {
      "inputs": [
        {
          "internalType": "address",
          "name": "owner",
          "type": "address"
        }
      ],
      "name": "ERC721InvalidOwner",
      "type": "error"
    },
    {
      "inputs": [
        {
          "internalType": "address",
          "name": "receiver",
          "type": "address"
        }
      ],
      "name": "ERC721InvalidReceiver",
      "type": "error"
    },
    {
      "inputs": [
        {
          "internalType": "address",
          "name": "sender",
          "type": "address"
        }
      ],
      "name": "ERC721InvalidSender",
      "type": "error"
    },
    {
      "inputs": [
        {
          "internalType": "uint256",
          "name": "tokenId",
          "type": "uint256"
        }
      ],
      "name": "ERC721NonexistentToken",
      "type": "error"
    },
    {
      "inputs": [
        {
          "internalType": "address",
          "name": "owner",
          "type": "address"
        }
      ],
      "name": "OwnableInvalidOwner",
      "type": "error"
    },
    {
      "inputs": [
        {
          "internalType": "address",
          "name": "account",
          "type": "address"
        }
      ],
      "name": "OwnableUnauthorizedAccount",
      "type": "error"
    },
    {
      "anonymous": false,
      "inputs": [
        {
          "indexed": true,
          "internalType": "address",
          "name": "owner",
          "type": "address"
        },
        {
          "indexed": true,
          "internalType": "address",
          "name": "approved",
          "type": "address"
        },
        {
          "indexed": true,
          "internalType": "uint256",
          "name": "tokenId",
          "type": "uint256"
        }
      ],
      "name": "Approval",
      "type": "event"
    },
    {
      "anonymous": false,
      "inputs": [
        {
          "indexed": true,
          "internalType": "address",
          "name": "owner",
          "type": "address"
        },
        {
          "indexed": true,
          "internalType": "address",
          "name": "operator",
          "type": "address"
        },
        {
          "indexed": false,
          "internalType": "bool",
          "name": "approved",
          "type": "bool"
        }
      ],
      "name": "ApprovalForAll",
      "type": "event"
    },
    {
      "anonymous": false,
      "inputs": [
        {
          "indexed": true,
          "internalType": "uint256",
          "name": "tokenId",
          "type": "uint256"
        },
        {
          "indexed": false,
          "internalType": "string",
          "name": "qrHash",
          "type": "string"
        }
      ],
      "name": "Minted",
      "type": "event"
    },
    {
      "anonymous": false,
      "inputs": [
        {
          "indexed": true,
          "internalType": "address",
          "name": "previousOwner",
          "type": "address"
        },
        {
          "indexed": true,
          "internalType": "address",
          "name": "newOwner",
          "type": "address"
        }
      ],
      "name": "OwnershipTransferred",
      "type": "event"
    },
    {
      "anonymous": false,
      "inputs": [
        {
          "indexed": true,
          "internalType": "uint256",
          "name": "tokenId",
          "type": "uint256"
        }
      ],
      "name": "Revoked",
      "type": "event"
    },
    {
      "anonymous": false,
      "inputs": [
        {
          "indexed": true,
          "internalType": "address",
          "name": "from",
          "type": "address"
        },
        {
          "indexed": true,
          "internalType": "address",
          "name": "to",
          "type": "address"
        },
        {
          "indexed": true,
          "internalType": "uint256",
          "name": "tokenId",
          "type": "uint256"
        }
      ],
      "name": "Transfer",
      "type": "event"
    },
    {
      "inputs": [
        {
          "internalType": "address",
          "name": "to",
          "type": "address"
        },
        {
          "internalType": "uint256",
          "name": "tokenId",
          "type": "uint256"
        }
      ],
      "name": "approve",
      "outputs": [],
      "stateMutability": "nonpayable",
      "type": "function"
    },
    {
      "inputs": [
        {
          "internalType": "address",
          "name": "owner",
          "type": "address"
        }
      ],
      "name": "balanceOf",
      "outputs": [
        {
          "internalType": "uint256",
          "name": "",
          "type": "uint256"
        }
      ],
      "stateMutability": "view",
      "type": "function"
    },
    {
      "inputs": [
        {
          "internalType": "uint256",
          "name": "tokenId",
          "type": "uint256"
        }
      ],
      "name": "getApproved",
      "outputs": [
        {
          "internalType": "address",
          "name": "",
          "type": "address"
        }
      ],
      "stateMutability": "view",
      "type": "function"
    },
    {
      "inputs": [
        {
          "internalType": "uint256",
          "name": "tokenId",
          "type": "uint256"
        }
      ],
      "name": "getMedicine",
      "outputs": [
        {
          "components": [
            {
              "internalType": "string",
              "name": "batchId",
              "type": "string"
            },
            {
              "internalType": "string",
              "name": "qrHash",
              "type": "string"
            },
            {
              "internalType": "string",
              "name": "manufacturer",
              "type": "string"
            },
            {
              "internalType": "uint256",
              "name": "expiry",
              "type": "uint256"
            },
            {
              "internalType": "bool",
              "name": "revoked",
              "type": "bool"
            }
          ],
          "internalType": "struct MedicineNFT.MedicineData",
          "name": "",
          "type": "tuple"
        }
      ],
      "stateMutability": "view",
      "type": "function"
    },
    {
      "inputs": [
        {
          "internalType": "address",
          "name": "owner",
          "type": "address"
        },
        {
          "internalType": "address",
          "name": "operator",
          "type": "address"
        }
      ],
      "name": "isApprovedForAll",
      "outputs": [
        {
          "internalType": "bool",
          "name": "",
          "type": "bool"
        }
      ],
      "stateMutability": "view",
      "type": "function"
    },
    {
      "inputs": [
        {
          "internalType": "uint256",
          "name": "",
          "type": "uint256"
        }
      ],
      "name": "medicines",
      "outputs": [
        {
          "internalType": "string",
          "name": "batchId",
          "type": "string"
        },
        {
          "internalType": "string",
          "name": "qrHash",
          "type": "string"
        },
        {
          "internalType": "string",
          "name": "manufacturer",
          "type": "string"
        },
        {
          "internalType": "uint256",
          "name": "expiry",
          "type": "uint256"
        },
        {
          "internalType": "bool",
          "name": "revoked",
          "type": "bool"
        }
      ],
      "stateMutability": "view",
      "type": "function"
    },
    {
      "inputs": [
        {
          "internalType": "address",
          "name": "to",
          "type": "address"
        },
        {
          "internalType": "string",
          "name": "batchId",
          "type": "string"
        },
        {
          "internalType": "string",
          "name": "qrHash",
          "type": "string"
        },
        {
          "internalType": "string",
          "name": "manufacturer",
          "type": "string"
        },
        {
          "internalType": "uint256",
          "name": "expiry",
          "type": "uint256"
        }
      ],
      "name": "mintMedicine",
      "outputs": [
        {
          "internalType": "uint256",
          "name": "",
          "type": "uint256"
        }
      ],
      "stateMutability": "nonpayable",
      "type": "function"
    },
    {
      "inputs": [],
      "name": "name",
      "outputs": [
        {
          "internalType": "string",
          "name": "",
          "type": "string"
        }
      ],
      "stateMutability": "view",
      "type": "function"
    },
    {
      "inputs": [],
      "name": "nextTokenId",
      "outputs": [
        {
          "internalType": "uint256",
          "name": "",
          "type": "uint256"
        }
      ],
      "stateMutability": "view",
      "type": "function"
    },
    {
      "inputs": [],
      "name": "owner",
      "outputs": [
        {
          "internalType": "address",
          "name": "",
          "type": "address"
        }
      ],
      "stateMutability": "view",
      "type": "function"
    },
    {
      "inputs": [
        {
          "internalType": "uint256",
          "name": "tokenId",
          "type": "uint256"
        }
      ],
      "name": "ownerOf",
      "outputs": [
        {
          "internalType": "address",
          "name": "",
          "type": "address"
        }
      ],
      "stateMutability": "view",
      "type": "function"
    },
    {
      "inputs": [],
      "name": "renounceOwnership",
      "outputs": [],
      "stateMutability": "nonpayable",
      "type": "function"
    },
    {
      "inputs": [
        {
          "internalType": "uint256",
          "name": "tokenId",
          "type": "uint256"
        }
      ],
      "name": "revoke",
      "outputs": [],
      "stateMutability": "nonpayable",
      "type": "function"
    },
    {
      "inputs": [
        {
          "internalType": "address",
          "name": "from",
          "type": "address"
        },
        {
          "internalType": "address",
          "name": "to",
          "type": "address"
        },
        {
          "internalType": "uint256",
          "name": "tokenId",
          "type": "uint256"
        }
      ],
      "name": "safeTransferFrom",
      "outputs": [],
      "stateMutability": "nonpayable",
      "type": "function"
    },
    {
      "inputs": [
        {
          "internalType": "address",
          "name": "from",
          "type": "address"
        },
        {
          "internalType": "address",
          "name": "to",
          "type": "address"
        },
        {
          "internalType": "uint256",
          "name": "tokenId",
          "type": "uint256"
        },
        {
          "internalType": "bytes",
          "name": "data",
          "type": "bytes"
        }
      ],
      "name": "safeTransferFrom",
      "outputs": [],
      "stateMutability": "nonpayable",
      "type": "function"
    },
    {
      "inputs": [
        {
          "internalType": "address",
          "name": "operator",
          "type": "address"
        },
        {
          "internalType": "bool",
          "name": "approved",
          "type": "bool"
        }
      ],
      "name": "setApprovalForAll",
      "outputs": [],
      "stateMutability": "nonpayable",
      "type": "function"
    },
    {
      "inputs": [
        {
          "internalType": "bytes4",
          "name": "interfaceId",
          "type": "bytes4"
        }
      ],
      "name": "supportsInterface",
      "outputs": [
        {
          "internalType": "bool",
          "name": "",
          "type": "bool"
        }
      ],
      "stateMutability": "view",
      "type": "function"
    },
    {
      "inputs": [],
      "name": "symbol",
      "outputs": [
        {
          "internalType": "string",
          "name": "",
          "type": "string"
        }
      ],
      "stateMutability": "view",
      "type": "function"
    },
    {
      "inputs": [
        {
          "internalType": "uint256",
          "name": "tokenId",
          "type": "uint256"
        }
      ],
      "name": "tokenURI",
      "outputs": [
        {
          "internalType": "string",
          "name": "",
          "type": "string"
        }
      ],
      "stateMutability": "view",
      "type": "function"
    },
    {
      "inputs": [
        {
          "internalType": "address",
          "name": "from",
          "type": "address"
        },
        {
          "internalType": "address",
          "name": "to",
          "type": "address"
        },
        {
          "internalType": "uint256",
          "name": "tokenId",
          "type": "uint256"
        }
      ],
      "name": "transferFrom",
      "outputs": [],
      "stateMutability": "nonpayable",
      "type": "function"
    },
    {
      "inputs": [
        {
          "internalType": "address",
          "name": "newOwner",
          "type": "address"
        }
      ],
      "name": "transferOwnership",
      "outputs": [],
      "stateMutability": "nonpayable",
      "type": "function"
    },
    {
      "inputs": [
        {
          "internalType": "uint256",
          "name": "tokenId",
          "type": "uint256"
        }
      ],
      "name": "verifyMedicine",
      "outputs": [
        {
          "internalType": "bool",
          "name": "valid",
          "type": "bool"
        },
        {
          "internalType": "string",
          "name": "reason",
          "type": "string"
        }
      ],
      "stateMutability": "view",
      "type": "function"
    }
  ],
  "bytecode": "0x60806040523480156200001157600080fd5b506040516200383a3803806200383a833981810160405281019062000037919062000288565b806040518060400160405280600b81526020017f506861726d61436861696e0000000000000000000000000000000000000000008152506040518060400160405280600681526020017f504841524d4100000000000000000000000000000000000000000000000000008152508160009081620000b5919062000534565b508060019081620000c7919062000534565b505050600073ffffffffffffffffffffffffffffffffffffffff168173ffffffffffffffffffffffffffffffffffffffff16036200013f5760006040517f1e4fbdf70000000000000000000000000000000000000000000000000000000081526004016200013691906200062c565b60405180910390fd5b62000150816200015860201b60201c565b505062000649565b6000600660009054906101000a900473ffffffffffffffffffffffffffffffffffffffff16905081600660006101000a81548173ffffffffffffffffffffffffffffffffffffffff021916908373ffffffffffffffffffffffffffffffffffffffff1602179055508173ffffffffffffffffffffffffffffffffffffffff168173ffffffffffffffffffffffffffffffffffffffff167f8be0079c531659141344cd1fd0a4f28419497f9722a3daafe3b4186f6b6457e060405160405180910390a35050565b600080fd5b600073ffffffffffffffffffffffffffffffffffffffff82169050919050565b6000620002508262000223565b9050919050565b620002628162000243565b81146200026e57600080fd5b50565b600081519050620002828162000257565b92915050565b600060208284031215620002a157620002a06200021e565b5b6000620002b18482850162000271565b91505092915050565b600081519050919050565b7f4e487b7100000000000000000000000000000000000000000000000000000000600052604160045260246000fd5b7f4e487b7100000000000000000000000000000000000000000000000000000000600052602260045260246000fd5b600060028204905060018216806200033c57607f821691505b602082108103620003525762000351620002f4565b5b50919050565b60008190508160005260206000209050919050565b60006020601f8301049050919050565b600082821b905092915050565b600060088302620003bc7fffffffffffffffffffffffffffffffffffffffffffffffffffffffffffffffff826200037d565b620003c886836200037d565b95508019841693508086168417925050509392505050565b6000819050919050565b6000819050919050565b6000620004156200040f6200040984620003e0565b620003ea565b620003e0565b9050919050565b6000819050919050565b6200043183620003f4565b6200044962000440826200041c565b8484546200038a565b825550505050565b600090565b6200046062000451565b6200046d81848462000426565b505050565b5b8181101562000495576200048960008262000456565b60018101905062000473565b5050565b601f821115620004e457620004ae8162000358565b620004b9846200036d565b81016020851015620004c9578190505b620004e1620004d8856200036d565b83018262000472565b50505b505050565b600082821c905092915050565b60006200050960001984600802620004e9565b1980831691505092915050565b6000620005248383620004f6565b9150826002028217905092915050565b6200053f82620002ba565b67ffffffffffffffff8111156200055b576200055a620002c5565b5b62000567825462000323565b6200057482828562000499565b600060209050601f831160018114620005ac576000841562000597578287015190505b620005a3858262000516565b86555062000613565b601f198416620005bc8662000358565b60005b82811015620005e657848901518255600182019150602085019450602081019050620005bf565b8683101562000606578489015162000602601f891682620004f6565b8355505b6001600288020188555050505b505050505050565b620006268162000243565b82525050565b60006020820190506200064360008301846200061b565b92915050565b6131e180620006596000396000f3fe608060405234801561001057600080fd5b50600436106101425760003560e01c806375794a3c116100b8578063b88d4fde1161007c578063b88d4fde14610376578063c85e766d14610392578063c87b56dd146103c6578063e4ae44f7146103f6578063e985e9c514610426578063f2fde38b1461045657610142565b806375794a3c146102d05780638da5cb5b146102ee57806395d89b411461030c578063a22cb4651461032a578063a67422651461034657610142565b806320c5429b1161010a57806320c5429b1461021257806323b872dd1461022e57806342842e0e1461024a5780636352211e1461026657806370a0823114610296578063715018a6146102c657610142565b806301ffc9a71461014757806306fdde0314610177578063081812fc14610195578063095ea7b3146101c55780630bb638f0146101e1575b600080fd5b610161600480360381019061015c91906123b4565b610472565b60405161016e91906123fc565b60405180910390f35b61017f610554565b60405161018c91906124a7565b60405180910390f35b6101af60048036038101906101aa91906124ff565b6105e6565b6040516101bc919061256d565b60405180910390f35b6101df60048036038101906101da91906125b4565b610602565b005b6101fb60048036038101906101f691906124ff565b610618565b6040516102099291906125f4565b60405180910390f35b61022c600480360381019061022791906124ff565b610973565b005b61024860048036038101906102439190612624565b610a51565b005b610264600480360381019061025f9190612624565b610b53565b005b610280600480360381019061027b91906124ff565b610b73565b60405161028d919061256d565b60405180910390f35b6102b060048036038101906102ab9190612677565b610b85565b6040516102bd91906126b3565b60405180910390f35b6102ce610c3f565b005b6102d8610c53565b6040516102e591906126b3565b60405180910390f35b6102f6610c59565b604051610303919061256d565b60405180910390f35b610314610c83565b60405161032191906124a7565b60405180910390f35b610344600480360381019061033f91906126fa565b610d15565b005b610360600480360381019061035b91906124ff565b610d2b565b60405161036d9190612826565b60405180910390f35b610390600480360381019061038b919061297d565b610faa565b005b6103ac60048036038101906103a791906124ff565b610fcf565b6040516103bd959493929190612a00565b60405180910390f35b6103e060048036038101906103db91906124ff565b6111aa565b6040516103ed91906124a7565b60405180910390f35b610410600480360381019061040b9190612b09565b611213565b60405161041d91906126b3565b60405180910390f35b610440600480360381019061043b9190612bd8565b611333565b60405161044d91906123fc565b60405180910390f35b610470600480360381019061046b9190612677565b6113c7565b005b60007f80ac58cd000000000000000000000000000000000000000000000000000000007bffffffffffffffffffffffffffffffffffffffffffffffffffffffff1916827bffffffffffffffffffffffffffffffffffffffffffffffffffffffff1916148061053d57507f5b5e139f000000000000000000000000000000000000000000000000000000007bffffffffffffffffffffffffffffffffffffffffffffffffffffffff1916827bffffffffffffffffffffffffffffffffffffffffffffffffffffffff1916145b8061054d575061054c8261144d565b5b9050919050565b60606000805461056390612c47565b80601f016020809104026020016040519081016040528092919081815260200182805461058f90612c47565b80156105dc5780601f106105b1576101008083540402835291602001916105dc565b820191906000526020600020905b8154815290600101906020018083116105bf57829003601f168201915b5050505050905090565b60006105f1826114b7565b506105fb8261153f565b9050919050565b610614828261060f61157c565b611584565b5050565b60006060600073ffffffffffffffffffffffffffffffffffffffff1661063d84611596565b73ffffffffffffffffffffffffffffffffffffffff16036106995760006040518060400160405280600981526020017f4e4f545f455849535400000000000000000000000000000000000000000000008152509150915061096e565b6000600860008581526020019081526020016000206040518060a00160405290816000820180546106c990612c47565b80601f01602080910402602001604051908101604052809291908181526020018280546106f590612c47565b80156107425780601f1061071757610100808354040283529160200191610742565b820191906000526020600020905b81548152906001019060200180831161072557829003601f168201915b5050505050815260200160018201805461075b90612c47565b80601f016020809104026020016040519081016040528092919081815260200182805461078790612c47565b80156107d45780601f106107a9576101008083540402835291602001916107d4565b820191906000526020600020905b8154815290600101906020018083116107b757829003601f168201915b505050505081526020016002820180546107ed90612c47565b80601f016020809104026020016040519081016040528092919081815260200182805461081990612c47565b80156108665780601f1061083b57610100808354040283529160200191610866565b820191906000526020600020905b81548152906001019060200180831161084957829003601f168201915b50505050508152602001600382015481526020016004820160009054906101000a900460ff16151515158152505090508060800151156108e25760006040518060400160405280600781526020017f5245564f4b454400000000000000000000000000000000000000000000000000815250925092505061096e565b80606001514211156109305760006040518060400160405280600781526020017f4558504952454400000000000000000000000000000000000000000000000000815250925092505061096e565b60016040518060400160405280600581526020017f56414c494400000000000000000000000000000000000000000000000000000081525092509250505b915091565b61097b6115d3565b600073ffffffffffffffffffffffffffffffffffffffff1661099c82611596565b73ffffffffffffffffffffffffffffffffffffffff16036109f2576040517f08c379a00000000000000000000000000000000000000000000000000000000081526004016109e990612cc4565b60405180910390fd5b60016008600083815260200190815260200160002060040160006101000a81548160ff021916908315150217905550807f61e27b0bfd8e18e6b92ec32ce1c28bb698d27bfe93e84c7e94d4db0a3135c76060405160405180910390a250565b600073ffffffffffffffffffffffffffffffffffffffff168273ffffffffffffffffffffffffffffffffffffffff1603610ac35760006040517f64a0ae92000000000000000000000000000000000000000000000000000000008152600401610aba919061256d565b60405180910390fd5b6000610ad78383610ad261157c565b61165a565b90508373ffffffffffffffffffffffffffffffffffffffff168173ffffffffffffffffffffffffffffffffffffffff1614610b4d578382826040517f64283d7b000000000000000000000000000000000000000000000000000000008152600401610b4493929190612ce4565b60405180910390fd5b50505050565b610b6e83838360405180602001604052806000815250610faa565b505050565b6000610b7e826114b7565b9050919050565b60008073ffffffffffffffffffffffffffffffffffffffff168273ffffffffffffffffffffffffffffffffffffffff1603610bf85760006040517f89c62b64000000000000000000000000000000000000000000000000000000008152600401610bef919061256d565b60405180910390fd5b600360008373ffffffffffffffffffffffffffffffffffffffff1673ffffffffffffffffffffffffffffffffffffffff168152602001908152602001600020549050919050565b610c476115d3565b610c516000611874565b565b60075481565b6000600660009054906101000a900473ffffffffffffffffffffffffffffffffffffffff16905090565b606060018054610c9290612c47565b80601f0160208091040260200160405190810160405280929190818152602001828054610cbe90612c47565b8015610d0b5780601f10610ce057610100808354040283529160200191610d0b565b820191906000526020600020905b815481529060010190602001808311610cee57829003601f168201915b5050505050905090565b610d27610d2061157c565b838361193a565b5050565b610d33612317565b600073ffffffffffffffffffffffffffffffffffffffff16610d5483611596565b73ffffffffffffffffffffffffffffffffffffffff1603610daa576040517f08c379a0000000000000000000000000000000000000000000000000000000008152600401610da190612cc4565b60405180910390fd5b600860008381526020019081526020016000206040518060a0016040529081600082018054610dd890612c47565b80601f0160208091040260200160405190810160405280929190818152602001828054610e0490612c47565b8015610e515780601f10610e2657610100808354040283529160200191610e51565b820191906000526020600020905b815481529060010190602001808311610e3457829003601f168201915b50505050508152602001600182018054610e6a90612c47565b80601f0160208091040260200160405190810160405280929190818152602001828054610e9690612c47565b8015610ee35780601f10610eb857610100808354040283529160200191610ee3565b820191906000526020600020905b815481529060010190602001808311610ec657829003601f168201915b50505050508152602001600282018054610efc90612c47565b80601f0160208091040260200160405190810160405280929190818152602001828054610f2890612c47565b8015610f755780601f10610f4a57610100808354040283529160200191610f75565b820191906000526020600020905b815481529060010190602001808311610f5857829003601f168201915b50505050508152602001600382015481526020016004820160009054906101000a900460ff1615151515815250509050919050565b610fb5848484610a51565b610fc9610fc061157c565b85858585611aa9565b50505050565b6008602052806000526040600020600091509050806000018054610ff290612c47565b80601f016020809104026020016040519081016040528092919081815260200182805461101e90612c47565b801561106b5780601f106110405761010080835404028352916020019161106b565b820191906000526020600020905b81548152906001019060200180831161104e57829003601f168201915b50505050509080600101805461108090612c47565b80601f01602080910402602001604051908101604052809291908181526020018280546110ac90612c47565b80156110f95780601f106110ce576101008083540402835291602001916110f9565b820191906000526020600020905b8154815290600101906020018083116110dc57829003601f168201915b50505050509080600201805461110e90612c47565b80601f016020809104026020016040519081016040528092919081815260200182805461113a90612c47565b80156111875780601f1061115c57610100808354040283529160200191611187565b820191906000526020600020905b81548152906001019060200180831161116a57829003601f168201915b5050505050908060030154908060040160009054906101000a900460ff16905085565b60606111b5826114b7565b5060006111c0611c5a565b905060008151116111e0576040518060200160405280600081525061120b565b806111ea84611c71565b6040516020016111fb929190612d57565b6040516020818303038152906040525b915050919050565b600061121d6115d3565b60006007600081548092919061123290612daa565b9190505590506112428782611d3f565b6040518060a00160405280878152602001868152602001858152602001848152602001600015158152506008600083815260200190815260200160002060008201518160000190816112949190612f9e565b5060208201518160010190816112aa9190612f9e565b5060408201518160020190816112c09190612f9e565b506060820151816003015560808201518160040160006101000a81548160ff021916908315150217905550905050807fadef11a3979b8ceb0573eb6ef0678134a09c23a0d94e5ea47cd18ac3a9fc01948660405161131e91906124a7565b60405180910390a28091505095945050505050565b6000600560008473ffffffffffffffffffffffffffffffffffffffff1673ffffffffffffffffffffffffffffffffffffffff16815260200190815260200160002060008373ffffffffffffffffffffffffffffffffffffffff1673ffffffffffffffffffffffffffffffffffffffff16815260200190815260200160002060009054906101000a900460ff16905092915050565b6113cf6115d3565b600073ffffffffffffffffffffffffffffffffffffffff168173ffffffffffffffffffffffffffffffffffffffff16036114415760006040517f1e4fbdf7000000000000000000000000000000000000000000000000000000008152600401611438919061256d565b60405180910390fd5b61144a81611874565b50565b60007f01ffc9a7000000000000000000000000000000000000000000000000000000007bffffffffffffffffffffffffffffffffffffffffffffffffffffffff1916827bffffffffffffffffffffffffffffffffffffffffffffffffffffffff1916149050919050565b6000806114c383611596565b9050600073ffffffffffffffffffffffffffffffffffffffff168173ffffffffffffffffffffffffffffffffffffffff160361153657826040517f7e27328900000000000000000000000000000000000000000000000000000000815260040161152d91906126b3565b60405180910390fd5b80915050919050565b60006004600083815260200190815260200160002060009054906101000a900473ffffffffffffffffffffffffffffffffffffffff169050919050565b600033905090565b6115918383836001611d5d565b505050565b60006002600083815260200190815260200160002060009054906101000a900473ffffffffffffffffffffffffffffffffffffffff169050919050565b6115db61157c565b73ffffffffffffffffffffffffffffffffffffffff166115f9610c59565b73ffffffffffffffffffffffffffffffffffffffff16146116585761161c61157c565b6040517f118cdaa700000000000000000000000000000000000000000000000000000000815260040161164f919061256d565b60405180910390fd5b565b60008061166684611596565b9050600073ffffffffffffffffffffffffffffffffffffffff168373ffffffffffffffffffffffffffffffffffffffff16146116a8576116a7818486611f22565b5b600073ffffffffffffffffffffffffffffffffffffffff168173ffffffffffffffffffffffffffffffffffffffff1614611739576116ea600085600080611d5d565b6001600360008373ffffffffffffffffffffffffffffffffffffffff1673ffffffffffffffffffffffffffffffffffffffff168152602001908152602001600020600082825403925050819055505b600073ffffffffffffffffffffffffffffffffffffffff168573ffffffffffffffffffffffffffffffffffffffff16146117bc576001600360008773ffffffffffffffffffffffffffffffffffffffff1673ffffffffffffffffffffffffffffffffffffffff168152602001908152602001600020600082825401925050819055505b846002600086815260200190815260200160002060006101000a81548173ffffffffffffffffffffffffffffffffffffffff021916908373ffffffffffffffffffffffffffffffffffffffff160217905550838573ffffffffffffffffffffffffffffffffffffffff168273ffffffffffffffffffffffffffffffffffffffff167fddf252ad1be2c89b69c2b068fc378daa952ba7f163c4a11628f55a4df523b3ef60405160405180910390a4809150509392505050565b6000600660009054906101000a900473ffffffffffffffffffffffffffffffffffffffff16905081600660006101000a81548173ffffffffffffffffffffffffffffffffffffffff021916908373ffffffffffffffffffffffffffffffffffffffff1602179055508173ffffffffffffffffffffffffffffffffffffffff168173ffffffffffffffffffffffffffffffffffffffff167f8be0079c531659141344cd1fd0a4f28419497f9722a3daafe3b4186f6b6457e060405160405180910390a35050565b600073ffffffffffffffffffffffffffffffffffffffff168273ffffffffffffffffffffffffffffffffffffffff16036119ab57816040517f5b08ba180000000000000000000000000000000000000000000000000000000081526004016119a2919061256d565b60405180910390fd5b80600560008573ffffffffffffffffffffffffffffffffffffffff1673ffffffffffffffffffffffffffffffffffffffff16815260200190815260200160002060008473ffffffffffffffffffffffffffffffffffffffff1673ffffffffffffffffffffffffffffffffffffffff16815260200190815260200160002060006101000a81548160ff0219169083151502179055508173ffffffffffffffffffffffffffffffffffffffff168373ffffffffffffffffffffffffffffffffffffffff167f17307eab39ab6107e8899845ad3d59bd9653f200f220920489ca2b5937696c3183604051611a9c91906123fc565b60405180910390a3505050565b60008373ffffffffffffffffffffffffffffffffffffffff163b1115611c53578273ffffffffffffffffffffffffffffffffffffffff1663150b7a02868685856040518563ffffffff1660e01b8152600401611b0894939291906130c5565b6020604051808303816000875af1925050508015611b4457506040513d601f19601f82011682018060405250810190611b419190613126565b60015b611bc8573d8060008114611b74576040519150601f19603f3d011682016040523d82523d6000602084013e611b79565b606091505b506000815103611bc057836040517f64a0ae92000000000000000000000000000000000000000000000000000000008152600401611bb7919061256d565b60405180910390fd5b805160208201fd5b63150b7a0260e01b7bffffffffffffffffffffffffffffffffffffffffffffffffffffffff1916817bffffffffffffffffffffffffffffffffffffffffffffffffffffffff191614611c5157836040517f64a0ae92000000000000000000000000000000000000000000000000000000008152600401611c48919061256d565b60405180910390fd5b505b5050505050565b606060405180602001604052806000815250905090565b606060006001611c8084611fe6565b01905060008167ffffffffffffffff811115611c9f57611c9e612852565b5b6040519080825280601f01601f191660200182016040528015611cd15781602001600182028036833780820191505090505b509050600082602083010190505b600115611d34578080600190039150507f3031323334353637383961626364656600000000000000000000000000000000600a86061a8153600a8581611d2857611d27613153565b5b04945060008503611cdf575b819350505050919050565b611d59828260405180602001604052806000815250612139565b5050565b8080611d965750600073ffffffffffffffffffffffffffffffffffffffff168273ffffffffffffffffffffffffffffffffffffffff1614155b15611eca576000611da6846114b7565b9050600073ffffffffffffffffffffffffffffffffffffffff168373ffffffffffffffffffffffffffffffffffffffff1614158015611e1157508273ffffffffffffffffffffffffffffffffffffffff168173ffffffffffffffffffffffffffffffffffffffff1614155b8015611e245750611e228184611333565b155b15611e6657826040517fa9fbf51f000000000000000000000000000000000000000000000000000000008152600401611e5d919061256d565b60405180910390fd5b8115611ec857838573ffffffffffffffffffffffffffffffffffffffff168273ffffffffffffffffffffffffffffffffffffffff167f8c5be1e5ebec7d5bd14f71427d1e84f3dd0314c0f7b2291e5b200ac8c7c3b92560405160405180910390a45b505b836004600085815260200190815260200160002060006101000a81548173ffffffffffffffffffffffffffffffffffffffff021916908373ffffffffffffffffffffffffffffffffffffffff16021790555050505050565b611f2d83838361215d565b611fe157600073ffffffffffffffffffffffffffffffffffffffff168373ffffffffffffffffffffffffffffffffffffffff1603611fa257806040517f7e273289000000000000000000000000000000000000000000000000000000008152600401611f9991906126b3565b60405180910390fd5b81816040517f177e802f000000000000000000000000000000000000000000000000000000008152600401611fd8929190613182565b60405180910390fd5b505050565b600080600090507a184f03e93ff9f4daa797ed6e38ed64bf6a1f0100000000000000008310612044577a184f03e93ff9f4daa797ed6e38ed64bf6a1f010000000000000000838161203a57612039613153565b5b0492506040810190505b6d04ee2d6d415b85acef81000000008310612081576d04ee2d6d415b85acef8100000000838161207757612076613153565b5b0492506020810190505b662386f26fc1000083106120b057662386f26fc1000083816120a6576120a5613153565b5b0492506010810190505b6305f5e10083106120d9576305f5e10083816120cf576120ce613153565b5b0492506008810190505b61271083106120fe5761271083816120f4576120f3613153565b5b0492506004810190505b60648310612121576064838161211757612116613153565b5b0492506002810190505b600a8310612130576001810190505b80915050919050565b612143838361221e565b61215861214e61157c565b6000858585611aa9565b505050565b60008073ffffffffffffffffffffffffffffffffffffffff168373ffffffffffffffffffffffffffffffffffffffff161415801561221557508273ffffffffffffffffffffffffffffffffffffffff168473ffffffffffffffffffffffffffffffffffffffff1614806121d657506121d58484611333565b5b8061221457508273ffffffffffffffffffffffffffffffffffffffff166121fc8361153f565b73ffffffffffffffffffffffffffffffffffffffff16145b5b90509392505050565b600073ffffffffffffffffffffffffffffffffffffffff168273ffffffffffffffffffffffffffffffffffffffff16036122905760006040517f64a0ae92000000000000000000000000000000000000000000000000000000008152600401612287919061256d565b60405180910390fd5b600061229e8383600061165a565b9050600073ffffffffffffffffffffffffffffffffffffffff168173ffffffffffffffffffffffffffffffffffffffff16146123125760006040517f73c6ac6e000000000000000000000000000000000000000000000000000000008152600401612309919061256d565b60405180910390fd5b505050565b6040518060a00160405280606081526020016060815260200160608152602001600081526020016000151581525090565b6000604051905090565b600080fd5b600080fd5b60007fffffffff0000000000000000000000000000000000000000000000000000000082169050919050565b6123918161235c565b811461239c57600080fd5b50565b6000813590506123ae81612388565b92915050565b6000602082840312156123ca576123c9612352565b5b60006123d88482850161239f565b91505092915050565b60008115159050919050565b6123f6816123e1565b82525050565b600060208201905061241160008301846123ed565b92915050565b600081519050919050565b600082825260208201905092915050565b60005b83811015612451578082015181840152602081019050612436565b60008484015250505050565b6000601f19601f8301169050919050565b600061247982612417565b6124838185612422565b9350612493818560208601612433565b61249c8161245d565b840191505092915050565b600060208201905081810360008301526124c1818461246e565b905092915050565b6000819050919050565b6124dc816124c9565b81146124e757600080fd5b50565b6000813590506124f9816124d3565b92915050565b60006020828403121561251557612514612352565b5b6000612523848285016124ea565b91505092915050565b600073ffffffffffffffffffffffffffffffffffffffff82169050919050565b60006125578261252c565b9050919050565b6125678161254c565b82525050565b6000602082019050612582600083018461255e565b92915050565b6125918161254c565b811461259c57600080fd5b50565b6000813590506125ae81612588565b92915050565b600080604083850312156125cb576125ca612352565b5b60006125d98582860161259f565b92505060206125ea858286016124ea565b9150509250929050565b600060408201905061260960008301856123ed565b818103602083015261261b818461246e565b90509392505050565b60008060006060848603121561263d5761263c612352565b5b600061264b8682870161259f565b935050602061265c8682870161259f565b925050604061266d868287016124ea565b9150509250925092565b60006020828403121561268d5761268c612352565b5b600061269b8482850161259f565b91505092915050565b6126ad816124c9565b82525050565b60006020820190506126c860008301846126a4565b92915050565b6126d7816123e1565b81146126e257600080fd5b50565b6000813590506126f4816126ce565b92915050565b6000806040838503121561271157612710612352565b5b600061271f8582860161259f565b9250506020612730858286016126e5565b9150509250929050565b600082825260208201905092915050565b600061275682612417565b612760818561273a565b9350612770818560208601612433565b6127798161245d565b840191505092915050565b61278d816124c9565b82525050565b61279c816123e1565b82525050565b600060a08301600083015184820360008601526127bf828261274b565b915050602083015184820360208601526127d9828261274b565b915050604083015184820360408601526127f3828261274b565b91505060608301516128086060860182612784565b50608083015161281b6080860182612793565b508091505092915050565b6000602082019050818103600083015261284081846127a2565b905092915050565b600080fd5b600080fd5b7f4e487b7100000000000000000000000000000000000000000000000000000000600052604160045260246000fd5b61288a8261245d565b810181811067ffffffffffffffff821117156128a9576128a8612852565b5b80604052505050565b60006128bc612348565b90506128c88282612881565b919050565b600067ffffffffffffffff8211156128e8576128e7612852565b5b6128f18261245d565b9050602081019050919050565b82818337600083830152505050565b600061292061291b846128cd565b6128b2565b90508281526020810184848401111561293c5761293b61284d565b5b6129478482856128fe565b509392505050565b600082601f83011261296457612963612848565b5b813561297484826020860161290d565b91505092915050565b6000806000806080858703121561299757612996612352565b5b60006129a58782880161259f565b94505060206129b68782880161259f565b93505060406129c7878288016124ea565b925050606085013567ffffffffffffffff8111156129e8576129e7612357565b5b6129f48782880161294f565b91505092959194509250565b600060a0820190508181036000830152612a1a818861246e565b90508181036020830152612a2e818761246e565b90508181036040830152612a42818661246e565b9050612a5160608301856126a4565b612a5e60808301846123ed565b9695505050505050565b600067ffffffffffffffff821115612a8357612a82612852565b5b612a8c8261245d565b9050602081019050919050565b6000612aac612aa784612a68565b6128b2565b905082815260208101848484011115612ac857612ac761284d565b5b612ad38482856128fe565b509392505050565b600082601f830112612af057612aef612848565b5b8135612b00848260208601612a99565b91505092915050565b600080600080600060a08688031215612b2557612b24612352565b5b6000612b338882890161259f565b955050602086013567ffffffffffffffff811115612b5457612b53612357565b5b612b6088828901612adb565b945050604086013567ffffffffffffffff811115612b8157612b80612357565b5b612b8d88828901612adb565b935050606086013567ffffffffffffffff811115612bae57612bad612357565b5b612bba88828901612adb565b9250506080612bcb888289016124ea565b9150509295509295909350565b60008060408385031215612bef57612bee612352565b5b6000612bfd8582860161259f565b9250506020612c0e8582860161259f565b9150509250929050565b7f4e487b7100000000000000000000000000000000000000000000000000000000600052602260045260246000fd5b60006002820490506001821680612c5f57607f821691505b602082108103612c7257612c71612c18565b5b50919050565b7f4e4f545f45584953540000000000000000000000000000000000000000000000600082015250565b6000612cae600983612422565b9150612cb982612c78565b602082019050919050565b60006020820190508181036000830152612cdd81612ca1565b9050919050565b6000606082019050612cf9600083018661255e565b612d0660208301856126a4565b612d13604083018461255e565b949350505050565b600081905092915050565b6000612d3182612417565b612d3b8185612d1b565b9350612d4b818560208601612433565b80840191505092915050565b6000612d638285612d26565b9150612d6f8284612d26565b91508190509392505050565b7f4e487b7100000000000000000000000000000000000000000000000000000000600052601160045260246000fd5b6000612db5826124c9565b91507fffffffffffffffffffffffffffffffffffffffffffffffffffffffffffffffff8203612de757612de6612d7b565b5b600182019050919050565b60008190508160005260206000209050919050565b60006020601f8301049050919050565b600082821b905092915050565b600060088302612e547fffffffffffffffffffffffffffffffffffffffffffffffffffffffffffffffff82612e17565b612e5e8683612e17565b95508019841693508086168417925050509392505050565b6000819050919050565b6000612e9b612e96612e91846124c9565b612e76565b6124c9565b9050919050565b6000819050919050565b612eb583612e80565b612ec9612ec182612ea2565b848454612e24565b825550505050565b600090565b612ede612ed1565b612ee9818484612eac565b505050565b5b81811015612f0d57612f02600082612ed6565b600181019050612eef565b5050565b601f821115612f5257612f2381612df2565b612f2c84612e07565b81016020851015612f3b578190505b612f4f612f4785612e07565b830182612eee565b50505b505050565b600082821c905092915050565b6000612f7560001984600802612f57565b1980831691505092915050565b6000612f8e8383612f64565b9150826002028217905092915050565b612fa782612417565b67ffffffffffffffff811115612fc057612fbf612852565b5b612fca8254612c47565b612fd5828285612f11565b600060209050601f8311600181146130085760008415612ff6578287015190505b6130008582612f82565b865550613068565b601f19841661301686612df2565b60005b8281101561303e57848901518255600182019150602085019450602081019050613019565b8683101561305b5784890151613057601f891682612f64565b8355505b6001600288020188555050505b505050505050565b600081519050919050565b600082825260208201905092915050565b600061309782613070565b6130a1818561307b565b93506130b1818560208601612433565b6130ba8161245d565b840191505092915050565b60006080820190506130da600083018761255e565b6130e7602083018661255e565b6130f460408301856126a4565b8181036060830152613106818461308c565b905095945050505050565b60008151905061312081612388565b92915050565b60006020828403121561313c5761313b612352565b5b600061314a84828501613111565b91505092915050565b7f4e487b7100000000000000000000000000000000000000000000000000000000600052601260045260246000fd5b6000604082019050613197600083018561255e565b6131a460208301846126a4565b939250505056fea2646970667358221220720759bf080882b1720ededc4129c14e8397345e573dd809cfded3db57cf824d64736f6c63430008180033",
  "linkReferences": {},
  "deployedLinkReferences": {}
}